{
  "_format": "hh-sol-artifact-1",
  "contractName": "NFTMarketPlace",
  "sourceName": "contracts/NFTMarketPlace.sol",
  "abi": [
    {
      "inputs": [
        {
          "internalType": "address",
          "name": "initialOwner",
          "type": "address"
        }
      ],
      "stateMutability": "nonpayable",
      "type": "constructor"
    },
    {
      "inputs": [
        {
          "internalType": "address",
          "name": "sender",
          "type": "address"
        },
        {
          "internalType": "uint256",
          "name": "tokenId",
          "type": "uint256"
        },
        {
          "internalType": "address",
          "name": "owner",
          "type": "address"
        }
      ],
      "name": "ERC721IncorrectOwner",
      "type": "error"
    },
    {
      "inputs": [
        {
          "internalType": "address",
          "name": "operator",
          "type": "address"
        },
        {
          "internalType": "uint256",
          "name": "tokenId",
          "type": "uint256"
        }
      ],
      "name": "ERC721InsufficientApproval",
      "type": "error"
    },
    {
      "inputs": [
        {
          "internalType": "address",
          "name": "approver",
          "type": "address"
        }
      ],
      "name": "ERC721InvalidApprover",
      "type": "error"
    },
    {
      "inputs": [
        {
          "internalType": "address",
          "name": "operator",
          "type": "address"
        }
      ],
      "name": "ERC721InvalidOperator",
      "type": "error"
    },
    {
      "inputs": [
        {
          "internalType": "address",
          "name": "owner",
          "type": "address"
        }
      ],
      "name": "ERC721InvalidOwner",
      "type": "error"
    },
    {
      "inputs": [
        {
          "internalType": "address",
          "name": "receiver",
          "type": "address"
        }
      ],
      "name": "ERC721InvalidReceiver",
      "type": "error"
    },
    {
      "inputs": [
        {
          "internalType": "address",
          "name": "sender",
          "type": "address"
        }
      ],
      "name": "ERC721InvalidSender",
      "type": "error"
    },
    {
      "inputs": [
        {
          "internalType": "uint256",
          "name": "tokenId",
          "type": "uint256"
        }
      ],
      "name": "ERC721NonexistentToken",
      "type": "error"
    },
    {
      "inputs": [
        {
          "internalType": "address",
          "name": "owner",
          "type": "address"
        }
      ],
      "name": "OwnableInvalidOwner",
      "type": "error"
    },
    {
      "inputs": [
        {
          "internalType": "address",
          "name": "account",
          "type": "address"
        }
      ],
      "name": "OwnableUnauthorizedAccount",
      "type": "error"
    },
    {
      "anonymous": false,
      "inputs": [
        {
          "indexed": true,
          "internalType": "address",
          "name": "owner",
          "type": "address"
        },
        {
          "indexed": true,
          "internalType": "address",
          "name": "approved",
          "type": "address"
        },
        {
          "indexed": true,
          "internalType": "uint256",
          "name": "tokenId",
          "type": "uint256"
        }
      ],
      "name": "Approval",
      "type": "event"
    },
    {
      "anonymous": false,
      "inputs": [
        {
          "indexed": true,
          "internalType": "address",
          "name": "owner",
          "type": "address"
        },
        {
          "indexed": true,
          "internalType": "address",
          "name": "operator",
          "type": "address"
        },
        {
          "indexed": false,
          "internalType": "bool",
          "name": "approved",
          "type": "bool"
        }
      ],
      "name": "ApprovalForAll",
      "type": "event"
    },
    {
      "anonymous": false,
      "inputs": [
        {
          "indexed": false,
          "internalType": "uint256",
          "name": "_fromTokenId",
          "type": "uint256"
        },
        {
          "indexed": false,
          "internalType": "uint256",
          "name": "_toTokenId",
          "type": "uint256"
        }
      ],
      "name": "BatchMetadataUpdate",
      "type": "event"
    },
    {
      "anonymous": false,
      "inputs": [
        {
          "indexed": true,
          "internalType": "uint256",
          "name": "tokenId",
          "type": "uint256"
        },
        {
          "indexed": false,
          "internalType": "address",
          "name": "seller",
          "type": "address"
        },
        {
          "indexed": false,
          "internalType": "address",
          "name": "owner",
          "type": "address"
        },
        {
          "indexed": false,
          "internalType": "uint256",
          "name": "price",
          "type": "uint256"
        },
        {
          "indexed": false,
          "internalType": "bool",
          "name": "sold",
          "type": "bool"
        }
      ],
      "name": "IDMarketItemCreated",
      "type": "event"
    },
    {
      "anonymous": false,
      "inputs": [
        {
          "indexed": false,
          "internalType": "uint256",
          "name": "_tokenId",
          "type": "uint256"
        }
      ],
      "name": "MetadataUpdate",
      "type": "event"
    },
    {
      "anonymous": false,
      "inputs": [
        {
          "indexed": true,
          "internalType": "address",
          "name": "previousOwner",
          "type": "address"
        },
        {
          "indexed": true,
          "internalType": "address",
          "name": "newOwner",
          "type": "address"
        }
      ],
      "name": "OwnershipTransferred",
      "type": "event"
    },
    {
      "anonymous": false,
      "inputs": [
        {
          "indexed": true,
          "internalType": "address",
          "name": "from",
          "type": "address"
        },
        {
          "indexed": true,
          "internalType": "address",
          "name": "to",
          "type": "address"
        },
        {
          "indexed": true,
          "internalType": "uint256",
          "name": "tokenId",
          "type": "uint256"
        }
      ],
      "name": "Transfer",
      "type": "event"
    },
    {
      "inputs": [
        {
          "internalType": "address",
          "name": "to",
          "type": "address"
        },
        {
          "internalType": "uint256",
          "name": "tokenId",
          "type": "uint256"
        }
      ],
      "name": "approve",
      "outputs": [],
      "stateMutability": "nonpayable",
      "type": "function"
    },
    {
      "inputs": [
        {
          "internalType": "address",
          "name": "owner",
          "type": "address"
        }
      ],
      "name": "balanceOf",
      "outputs": [
        {
          "internalType": "uint256",
          "name": "",
          "type": "uint256"
        }
      ],
      "stateMutability": "view",
      "type": "function"
    },
    {
      "inputs": [
        {
          "internalType": "uint256",
          "name": "tokenId",
          "type": "uint256"
        }
      ],
      "name": "createMarketSale",
      "outputs": [],
      "stateMutability": "payable",
      "type": "function"
    },
    {
      "inputs": [
        {
          "internalType": "string",
          "name": "tokenURI",
          "type": "string"
        },
        {
          "internalType": "uint256",
          "name": "price",
          "type": "uint256"
        }
      ],
      "name": "createToken",
      "outputs": [
        {
          "internalType": "uint256",
          "name": "",
          "type": "uint256"
        }
      ],
      "stateMutability": "payable",
      "type": "function"
    },
    {
      "inputs": [],
      "name": "fetchListedItem",
      "outputs": [
        {
          "components": [
            {
              "internalType": "uint256",
              "name": "tokenId",
              "type": "uint256"
            },
            {
              "internalType": "address payable",
              "name": "seller",
              "type": "address"
            },
            {
              "internalType": "address payable",
              "name": "owner",
              "type": "address"
            },
            {
              "internalType": "uint256",
              "name": "price",
              "type": "uint256"
            },
            {
              "internalType": "bool",
              "name": "sold",
              "type": "bool"
            }
          ],
          "internalType": "struct NFTMarketPlace.MarketItem[]",
          "name": "",
          "type": "tuple[]"
        }
      ],
      "stateMutability": "view",
      "type": "function"
    },
    {
      "inputs": [],
      "name": "fetchMarketItem",
      "outputs": [
        {
          "components": [
            {
              "internalType": "uint256",
              "name": "tokenId",
              "type": "uint256"
            },
            {
              "internalType": "address payable",
              "name": "seller",
              "type": "address"
            },
            {
              "internalType": "address payable",
              "name": "owner",
              "type": "address"
            },
            {
              "internalType": "uint256",
              "name": "price",
              "type": "uint256"
            },
            {
              "internalType": "bool",
              "name": "sold",
              "type": "bool"
            }
          ],
          "internalType": "struct NFTMarketPlace.MarketItem[]",
          "name": "",
          "type": "tuple[]"
        }
      ],
      "stateMutability": "view",
      "type": "function"
    },
    {
      "inputs": [],
      "name": "fetchMyNFT",
      "outputs": [
        {
          "components": [
            {
              "internalType": "uint256",
              "name": "tokenId",
              "type": "uint256"
            },
            {
              "internalType": "address payable",
              "name": "seller",
              "type": "address"
            },
            {
              "internalType": "address payable",
              "name": "owner",
              "type": "address"
            },
            {
              "internalType": "uint256",
              "name": "price",
              "type": "uint256"
            },
            {
              "internalType": "bool",
              "name": "sold",
              "type": "bool"
            }
          ],
          "internalType": "struct NFTMarketPlace.MarketItem[]",
          "name": "",
          "type": "tuple[]"
        }
      ],
      "stateMutability": "view",
      "type": "function"
    },
    {
      "inputs": [
        {
          "internalType": "uint256",
          "name": "tokenId",
          "type": "uint256"
        }
      ],
      "name": "getApproved",
      "outputs": [
        {
          "internalType": "address",
          "name": "",
          "type": "address"
        }
      ],
      "stateMutability": "view",
      "type": "function"
    },
    {
      "inputs": [],
      "name": "getListingPrice",
      "outputs": [
        {
          "internalType": "uint256",
          "name": "",
          "type": "uint256"
        }
      ],
      "stateMutability": "view",
      "type": "function"
    },
    {
      "inputs": [
        {
          "internalType": "address",
          "name": "owner",
          "type": "address"
        },
        {
          "internalType": "address",
          "name": "operator",
          "type": "address"
        }
      ],
      "name": "isApprovedForAll",
      "outputs": [
        {
          "internalType": "bool",
          "name": "",
          "type": "bool"
        }
      ],
      "stateMutability": "view",
      "type": "function"
    },
    {
      "inputs": [],
      "name": "listingPrice",
      "outputs": [
        {
          "internalType": "uint256",
          "name": "",
          "type": "uint256"
        }
      ],
      "stateMutability": "view",
      "type": "function"
    },
    {
      "inputs": [],
      "name": "name",
      "outputs": [
        {
          "internalType": "string",
          "name": "",
          "type": "string"
        }
      ],
      "stateMutability": "view",
      "type": "function"
    },
    {
      "inputs": [],
      "name": "owner",
      "outputs": [
        {
          "internalType": "address",
          "name": "",
          "type": "address"
        }
      ],
      "stateMutability": "view",
      "type": "function"
    },
    {
      "inputs": [
        {
          "internalType": "uint256",
          "name": "tokenId",
          "type": "uint256"
        }
      ],
      "name": "ownerOf",
      "outputs": [
        {
          "internalType": "address",
          "name": "",
          "type": "address"
        }
      ],
      "stateMutability": "view",
      "type": "function"
    },
    {
      "inputs": [],
      "name": "renounceOwnership",
      "outputs": [],
      "stateMutability": "nonpayable",
      "type": "function"
    },
    {
      "inputs": [
        {
          "internalType": "uint256",
          "name": "tokenId",
          "type": "uint256"
        },
        {
          "internalType": "uint256",
          "name": "price",
          "type": "uint256"
        }
      ],
      "name": "resaleToken",
      "outputs": [],
      "stateMutability": "payable",
      "type": "function"
    },
    {
      "inputs": [
        {
          "internalType": "address",
          "name": "from",
          "type": "address"
        },
        {
          "internalType": "address",
          "name": "to",
          "type": "address"
        },
        {
          "internalType": "uint256",
          "name": "tokenId",
          "type": "uint256"
        }
      ],
      "name": "safeTransferFrom",
      "outputs": [],
      "stateMutability": "nonpayable",
      "type": "function"
    },
    {
      "inputs": [
        {
          "internalType": "address",
          "name": "from",
          "type": "address"
        },
        {
          "internalType": "address",
          "name": "to",
          "type": "address"
        },
        {
          "internalType": "uint256",
          "name": "tokenId",
          "type": "uint256"
        },
        {
          "internalType": "bytes",
          "name": "data",
          "type": "bytes"
        }
      ],
      "name": "safeTransferFrom",
      "outputs": [],
      "stateMutability": "nonpayable",
      "type": "function"
    },
    {
      "inputs": [
        {
          "internalType": "address",
          "name": "operator",
          "type": "address"
        },
        {
          "internalType": "bool",
          "name": "approved",
          "type": "bool"
        }
      ],
      "name": "setApprovalForAll",
      "outputs": [],
      "stateMutability": "nonpayable",
      "type": "function"
    },
    {
      "inputs": [
        {
          "internalType": "bytes4",
          "name": "interfaceId",
          "type": "bytes4"
        }
      ],
      "name": "supportsInterface",
      "outputs": [
        {
          "internalType": "bool",
          "name": "",
          "type": "bool"
        }
      ],
      "stateMutability": "view",
      "type": "function"
    },
    {
      "inputs": [],
      "name": "symbol",
      "outputs": [
        {
          "internalType": "string",
          "name": "",
          "type": "string"
        }
      ],
      "stateMutability": "view",
      "type": "function"
    },
    {
      "inputs": [
        {
          "internalType": "uint256",
          "name": "tokenId",
          "type": "uint256"
        }
      ],
      "name": "tokenURI",
      "outputs": [
        {
          "internalType": "string",
          "name": "",
          "type": "string"
        }
      ],
      "stateMutability": "view",
      "type": "function"
    },
    {
      "inputs": [
        {
          "internalType": "address",
          "name": "from",
          "type": "address"
        },
        {
          "internalType": "address",
          "name": "to",
          "type": "address"
        },
        {
          "internalType": "uint256",
          "name": "tokenId",
          "type": "uint256"
        }
      ],
      "name": "transferFrom",
      "outputs": [],
      "stateMutability": "nonpayable",
      "type": "function"
    },
    {
      "inputs": [
        {
          "internalType": "address",
          "name": "newOwner",
          "type": "address"
        }
      ],
      "name": "transferOwnership",
      "outputs": [],
      "stateMutability": "nonpayable",
      "type": "function"
    },
    {
      "inputs": [
        {
          "internalType": "uint256",
          "name": "_ListingPrice",
          "type": "uint256"
        }
      ],
      "name": "updateListingPrice",
      "outputs": [],
      "stateMutability": "nonpayable",
      "type": "function"
    }
  ],
  "bytecode": "0x60806040526608e1bc9bf04000600a553480156200001c57600080fd5b506040516200416338038062004163833981810160405281019062000042919062000293565b806040518060400160405280600581526020017f546f6b656e0000000000000000000000000000000000000000000000000000008152506040518060400160405280600381526020017f544b4e00000000000000000000000000000000000000000000000000000000008152508160009081620000c091906200053f565b508060019081620000d291906200053f565b505050600073ffffffffffffffffffffffffffffffffffffffff168173ffffffffffffffffffffffffffffffffffffffff16036200014a5760006040517f1e4fbdf700000000000000000000000000000000000000000000000000000000815260040162000141919062000637565b60405180910390fd5b6200015b816200016360201b60201c565b505062000654565b6000600760009054906101000a900473ffffffffffffffffffffffffffffffffffffffff16905081600760006101000a81548173ffffffffffffffffffffffffffffffffffffffff021916908373ffffffffffffffffffffffffffffffffffffffff1602179055508173ffffffffffffffffffffffffffffffffffffffff168173ffffffffffffffffffffffffffffffffffffffff167f8be0079c531659141344cd1fd0a4f28419497f9722a3daafe3b4186f6b6457e060405160405180910390a35050565b600080fd5b600073ffffffffffffffffffffffffffffffffffffffff82169050919050565b60006200025b826200022e565b9050919050565b6200026d816200024e565b81146200027957600080fd5b50565b6000815190506200028d8162000262565b92915050565b600060208284031215620002ac57620002ab62000229565b5b6000620002bc848285016200027c565b91505092915050565b600081519050919050565b7f4e487b7100000000000000000000000000000000000000000000000000000000600052604160045260246000fd5b7f4e487b7100000000000000000000000000000000000000000000000000000000600052602260045260246000fd5b600060028204905060018216806200034757607f821691505b6020821081036200035d576200035c620002ff565b5b50919050565b60008190508160005260206000209050919050565b60006020601f8301049050919050565b600082821b905092915050565b600060088302620003c77fffffffffffffffffffffffffffffffffffffffffffffffffffffffffffffffff8262000388565b620003d3868362000388565b95508019841693508086168417925050509392505050565b6000819050919050565b6000819050919050565b6000620004206200041a6200041484620003eb565b620003f5565b620003eb565b9050919050565b6000819050919050565b6200043c83620003ff565b620004546200044b8262000427565b84845462000395565b825550505050565b600090565b6200046b6200045c565b6200047881848462000431565b505050565b5b81811015620004a0576200049460008262000461565b6001810190506200047e565b5050565b601f821115620004ef57620004b98162000363565b620004c48462000378565b81016020851015620004d4578190505b620004ec620004e38562000378565b8301826200047d565b50505b505050565b600082821c905092915050565b60006200051460001984600802620004f4565b1980831691505092915050565b60006200052f838362000501565b9150826002028217905092915050565b6200054a82620002c5565b67ffffffffffffffff811115620005665762000565620002d0565b5b6200057282546200032e565b6200057f828285620004a4565b600060209050601f831160018114620005b75760008415620005a2578287015190505b620005ae858262000521565b8655506200061e565b601f198416620005c78662000363565b60005b82811015620005f157848901518255600182019150602085019450602081019050620005ca565b868310156200061157848901516200060d601f89168262000501565b8355505b6001600288020188555050505b505050505050565b62000631816200024e565b82525050565b60006020820190506200064e600083018462000626565b92915050565b613aff80620006646000396000f3fe6080604052600436106101665760003560e01c80638fafd021116100d1578063be9af5361161008a578063c87b56dd11610064578063c87b56dd14610510578063e985e9c51461054d578063f2fde38b1461058a578063ff465255146105b357610166565b8063be9af5361461049e578063c18763f7146104ba578063c78f19f9146104e557610166565b80638fafd021146103a257806395d89b41146103cd5780639a8f272a146103f8578063a22cb46514610423578063ae677aa31461044c578063b88d4fde1461047557610166565b806342842e0e1161012357806342842e0e1461028d5780636352211e146102b657806370a08231146102f3578063715018a61461033057806372b3b620146103475780638da5cb5b1461037757610166565b806301ffc9a71461016b57806306fdde03146101a8578063081812fc146101d3578063095ea7b31461021057806312e855851461023957806323b872dd14610264575b600080fd5b34801561017757600080fd5b50610192600480360381019061018d9190612b2f565b6105cf565b60405161019f9190612b77565b60405180910390f35b3480156101b457600080fd5b506101bd610630565b6040516101ca9190612c22565b60405180910390f35b3480156101df57600080fd5b506101fa60048036038101906101f59190612c7a565b6106c2565b6040516102079190612ce8565b60405180910390f35b34801561021c57600080fd5b5061023760048036038101906102329190612d2f565b6106de565b005b34801561024557600080fd5b5061024e6106f4565b60405161025b9190612d7e565b60405180910390f35b34801561027057600080fd5b5061028b60048036038101906102869190612d99565b6106fe565b005b34801561029957600080fd5b506102b460048036038101906102af9190612d99565b610800565b005b3480156102c257600080fd5b506102dd60048036038101906102d89190612c7a565b610820565b6040516102ea9190612ce8565b60405180910390f35b3480156102ff57600080fd5b5061031a60048036038101906103159190612dec565b610832565b6040516103279190612d7e565b60405180910390f35b34801561033c57600080fd5b506103456108ec565b005b610361600480360381019061035c9190612f4e565b610900565b60405161036e9190612d7e565b60405180910390f35b34801561038357600080fd5b5061038c610949565b6040516103999190612ce8565b60405180910390f35b3480156103ae57600080fd5b506103b7610973565b6040516103c49190613100565b60405180910390f35b3480156103d957600080fd5b506103e2610b97565b6040516103ef9190612c22565b60405180910390f35b34801561040457600080fd5b5061040d610c29565b60405161041a9190613100565b60405180910390f35b34801561042f57600080fd5b5061044a6004803603810190610445919061314e565b610e45565b005b34801561045857600080fd5b50610473600480360381019061046e9190612c7a565b610e5b565b005b34801561048157600080fd5b5061049c6004803603810190610497919061322f565b610e6d565b005b6104b860048036038101906104b39190612c7a565b610e8a565b005b3480156104c657600080fd5b506104cf61109d565b6040516104dc9190613100565b60405180910390f35b3480156104f157600080fd5b506104fa6112b9565b6040516105079190612d7e565b60405180910390f35b34801561051c57600080fd5b5061053760048036038101906105329190612c7a565b6112bf565b6040516105449190612c22565b60405180910390f35b34801561055957600080fd5b50610574600480360381019061056f91906132b2565b6113d2565b6040516105819190612b77565b60405180910390f35b34801561059657600080fd5b506105b160048036038101906105ac9190612dec565b611466565b005b6105cd60048036038101906105c891906132f2565b6114ec565b005b6000634906490660e01b7bffffffffffffffffffffffffffffffffffffffffffffffffffffffff1916827bffffffffffffffffffffffffffffffffffffffffffffffffffffffff191614806106295750610628826116cc565b5b9050919050565b60606000805461063f90613361565b80601f016020809104026020016040519081016040528092919081815260200182805461066b90613361565b80156106b85780601f1061068d576101008083540402835291602001916106b8565b820191906000526020600020905b81548152906001019060200180831161069b57829003601f168201915b5050505050905090565b60006106cd826117ae565b506106d782611836565b9050919050565b6106f082826106eb611873565b61187b565b5050565b6000600a54905090565b600073ffffffffffffffffffffffffffffffffffffffff168273ffffffffffffffffffffffffffffffffffffffff16036107705760006040517f64a0ae920000000000000000000000000000000000000000000000000000000081526004016107679190612ce8565b60405180910390fd5b6000610784838361077f611873565b61188d565b90508373ffffffffffffffffffffffffffffffffffffffff168173ffffffffffffffffffffffffffffffffffffffff16146107fa578382826040517f64283d7b0000000000000000000000000000000000000000000000000000000081526004016107f193929190613392565b60405180910390fd5b50505050565b61081b83838360405180602001604052806000815250610e6d565b505050565b600061082b826117ae565b9050919050565b60008073ffffffffffffffffffffffffffffffffffffffff168273ffffffffffffffffffffffffffffffffffffffff16036108a55760006040517f89c62b6400000000000000000000000000000000000000000000000000000000815260040161089c9190612ce8565b60405180910390fd5b600360008373ffffffffffffffffffffffffffffffffffffffff1673ffffffffffffffffffffffffffffffffffffffff168152602001908152602001600020549050919050565b6108f4611aa7565b6108fe6000611b2e565b565b600060086000815480929190610915906133f8565b91905055506000600854905061092b3382611bf4565b6109358185611ced565b61093f8184611d49565b8091505092915050565b6000600760009054906101000a900473ffffffffffffffffffffffffffffffffffffffff16905090565b606060006008549050600060085490506000808267ffffffffffffffff8111156109a05761099f612e23565b5b6040519080825280602002602001820160405280156109d957816020015b6109c6612a66565b8152602001906001900390816109be5790505b5090506000600190505b848111610b8c573073ffffffffffffffffffffffffffffffffffffffff166009600083815260200190815260200160002060020160009054906101000a900473ffffffffffffffffffffffffffffffffffffffff1673ffffffffffffffffffffffffffffffffffffffff1603610b7957600960008281526020019081526020016000206040518060a0016040529081600082015481526020016001820160009054906101000a900473ffffffffffffffffffffffffffffffffffffffff1673ffffffffffffffffffffffffffffffffffffffff1673ffffffffffffffffffffffffffffffffffffffff1681526020016002820160009054906101000a900473ffffffffffffffffffffffffffffffffffffffff1673ffffffffffffffffffffffffffffffffffffffff1673ffffffffffffffffffffffffffffffffffffffff168152602001600382015481526020016004820160009054906101000a900460ff161515151581525050828481518110610b5f57610b5e613440565b5b60200260200101819052508280610b75906133f8565b9350505b8080610b84906133f8565b9150506109e3565b508094505050505090565b606060018054610ba690613361565b80601f0160208091040260200160405190810160405280929190818152602001828054610bd290613361565b8015610c1f5780601f10610bf457610100808354040283529160200191610c1f565b820191906000526020600020905b815481529060010190602001808311610c0257829003601f168201915b5050505050905090565b6060600060085490506000808267ffffffffffffffff811115610c4f57610c4e612e23565b5b604051908082528060200260200182016040528015610c8857816020015b610c75612a66565b815260200190600190039081610c6d5790505b5090506000600190505b838111610e3b573373ffffffffffffffffffffffffffffffffffffffff166009600083815260200190815260200160002060010160009054906101000a900473ffffffffffffffffffffffffffffffffffffffff1673ffffffffffffffffffffffffffffffffffffffff1603610e2857600960008281526020019081526020016000206040518060a0016040529081600082015481526020016001820160009054906101000a900473ffffffffffffffffffffffffffffffffffffffff1673ffffffffffffffffffffffffffffffffffffffff1673ffffffffffffffffffffffffffffffffffffffff1681526020016002820160009054906101000a900473ffffffffffffffffffffffffffffffffffffffff1673ffffffffffffffffffffffffffffffffffffffff1673ffffffffffffffffffffffffffffffffffffffff168152602001600382015481526020016004820160009054906101000a900460ff161515151581525050828481518110610e0e57610e0d613440565b5b60200260200101819052508280610e24906133f8565b9350505b8080610e33906133f8565b915050610c92565b5080935050505090565b610e57610e50611873565b8383611f41565b5050565b610e63611aa7565b80600a8190555050565b610e788484846106fe565b610e84848484846120b0565b50505050565b600060096000838152602001908152602001600020600301549050803414610ee7576040517f08c379a0000000000000000000000000000000000000000000000000000000008152600401610ede906134bb565b60405180910390fd5b336009600084815260200190815260200160002060020160006101000a81548173ffffffffffffffffffffffffffffffffffffffff021916908373ffffffffffffffffffffffffffffffffffffffff16021790555060016009600084815260200190815260200160002060040160006101000a81548160ff02191690831515021790555060006009600084815260200190815260200160002060020160006101000a81548173ffffffffffffffffffffffffffffffffffffffff021916908373ffffffffffffffffffffffffffffffffffffffff160217905550610fc9610949565b73ffffffffffffffffffffffffffffffffffffffff166108fc600a549081150290604051600060405180830381858888f19350505050158015611010573d6000803e3d6000fd5b506009600083815260200190815260200160002060010160009054906101000a900473ffffffffffffffffffffffffffffffffffffffff1673ffffffffffffffffffffffffffffffffffffffff166108fc349081150290604051600060405180830381858888f1935050505015801561108d573d6000803e3d6000fd5b50611099303384612267565b5050565b6060600060085490506000808267ffffffffffffffff8111156110c3576110c2612e23565b5b6040519080825280602002602001820160405280156110fc57816020015b6110e9612a66565b8152602001906001900390816110e15790505b5090506000600190505b8381116112af573373ffffffffffffffffffffffffffffffffffffffff166009600083815260200190815260200160002060020160009054906101000a900473ffffffffffffffffffffffffffffffffffffffff1673ffffffffffffffffffffffffffffffffffffffff160361129c57600960008281526020019081526020016000206040518060a0016040529081600082015481526020016001820160009054906101000a900473ffffffffffffffffffffffffffffffffffffffff1673ffffffffffffffffffffffffffffffffffffffff1673ffffffffffffffffffffffffffffffffffffffff1681526020016002820160009054906101000a900473ffffffffffffffffffffffffffffffffffffffff1673ffffffffffffffffffffffffffffffffffffffff1673ffffffffffffffffffffffffffffffffffffffff168152602001600382015481526020016004820160009054906101000a900460ff16151515158152505082848151811061128257611281613440565b5b60200260200101819052508280611298906133f8565b9350505b80806112a7906133f8565b915050611106565b5080935050505090565b600a5481565b60606112ca826117ae565b5060006006600084815260200190815260200160002080546112eb90613361565b80601f016020809104026020016040519081016040528092919081815260200182805461131790613361565b80156113645780601f1061133957610100808354040283529160200191611364565b820191906000526020600020905b81548152906001019060200180831161134757829003601f168201915b5050505050905060006113756123d4565b9050600081510361138a5781925050506113cd565b6000825111156113bf5780826040516020016113a7929190613517565b604051602081830303815290604052925050506113cd565b6113c8846123eb565b925050505b919050565b6000600560008473ffffffffffffffffffffffffffffffffffffffff1673ffffffffffffffffffffffffffffffffffffffff16815260200190815260200160002060008373ffffffffffffffffffffffffffffffffffffffff1673ffffffffffffffffffffffffffffffffffffffff16815260200190815260200160002060009054906101000a900460ff16905092915050565b61146e611aa7565b600073ffffffffffffffffffffffffffffffffffffffff168173ffffffffffffffffffffffffffffffffffffffff16036114e05760006040517f1e4fbdf70000000000000000000000000000000000000000000000000000000081526004016114d79190612ce8565b60405180910390fd5b6114e981611b2e565b50565b3373ffffffffffffffffffffffffffffffffffffffff166009600084815260200190815260200160002060020160009054906101000a900473ffffffffffffffffffffffffffffffffffffffff1673ffffffffffffffffffffffffffffffffffffffff1614611590576040517f08c379a0000000000000000000000000000000000000000000000000000000008152600401611587906135ad565b60405180910390fd5b600a5434146115d4576040517f08c379a00000000000000000000000000000000000000000000000000000000081526004016115cb9061363f565b60405180910390fd5b60006009600084815260200190815260200160002060040160006101000a81548160ff021916908315150217905550806009600084815260200190815260200160002060030181905550336009600084815260200190815260200160002060010160006101000a81548173ffffffffffffffffffffffffffffffffffffffff021916908373ffffffffffffffffffffffffffffffffffffffff160217905550306009600084815260200190815260200160002060020160006101000a81548173ffffffffffffffffffffffffffffffffffffffff021916908373ffffffffffffffffffffffffffffffffffffffff1602179055505050565b60007f80ac58cd000000000000000000000000000000000000000000000000000000007bffffffffffffffffffffffffffffffffffffffffffffffffffffffff1916827bffffffffffffffffffffffffffffffffffffffffffffffffffffffff1916148061179757507f5b5e139f000000000000000000000000000000000000000000000000000000007bffffffffffffffffffffffffffffffffffffffffffffffffffffffff1916827bffffffffffffffffffffffffffffffffffffffffffffffffffffffff1916145b806117a757506117a682612454565b5b9050919050565b6000806117ba836124be565b9050600073ffffffffffffffffffffffffffffffffffffffff168173ffffffffffffffffffffffffffffffffffffffff160361182d57826040517f7e2732890000000000000000000000000000000000000000000000000000000081526004016118249190612d7e565b60405180910390fd5b80915050919050565b60006004600083815260200190815260200160002060009054906101000a900473ffffffffffffffffffffffffffffffffffffffff169050919050565b600033905090565b61188883838360016124fb565b505050565b600080611899846124be565b9050600073ffffffffffffffffffffffffffffffffffffffff168373ffffffffffffffffffffffffffffffffffffffff16146118db576118da8184866126c0565b5b600073ffffffffffffffffffffffffffffffffffffffff168173ffffffffffffffffffffffffffffffffffffffff161461196c5761191d6000856000806124fb565b6001600360008373ffffffffffffffffffffffffffffffffffffffff1673ffffffffffffffffffffffffffffffffffffffff168152602001908152602001600020600082825403925050819055505b600073ffffffffffffffffffffffffffffffffffffffff168573ffffffffffffffffffffffffffffffffffffffff16146119ef576001600360008773ffffffffffffffffffffffffffffffffffffffff1673ffffffffffffffffffffffffffffffffffffffff168152602001908152602001600020600082825401925050819055505b846002600086815260200190815260200160002060006101000a81548173ffffffffffffffffffffffffffffffffffffffff021916908373ffffffffffffffffffffffffffffffffffffffff160217905550838573ffffffffffffffffffffffffffffffffffffffff168273ffffffffffffffffffffffffffffffffffffffff167fddf252ad1be2c89b69c2b068fc378daa952ba7f163c4a11628f55a4df523b3ef60405160405180910390a4809150509392505050565b611aaf611873565b73ffffffffffffffffffffffffffffffffffffffff16611acd610949565b73ffffffffffffffffffffffffffffffffffffffff1614611b2c57611af0611873565b6040517f118cdaa7000000000000000000000000000000000000000000000000000000008152600401611b239190612ce8565b60405180910390fd5b565b6000600760009054906101000a900473ffffffffffffffffffffffffffffffffffffffff16905081600760006101000a81548173ffffffffffffffffffffffffffffffffffffffff021916908373ffffffffffffffffffffffffffffffffffffffff1602179055508173ffffffffffffffffffffffffffffffffffffffff168173ffffffffffffffffffffffffffffffffffffffff167f8be0079c531659141344cd1fd0a4f28419497f9722a3daafe3b4186f6b6457e060405160405180910390a35050565b600073ffffffffffffffffffffffffffffffffffffffff168273ffffffffffffffffffffffffffffffffffffffff1603611c665760006040517f64a0ae92000000000000000000000000000000000000000000000000000000008152600401611c5d9190612ce8565b60405180910390fd5b6000611c748383600061188d565b9050600073ffffffffffffffffffffffffffffffffffffffff168173ffffffffffffffffffffffffffffffffffffffff1614611ce85760006040517f73c6ac6e000000000000000000000000000000000000000000000000000000008152600401611cdf9190612ce8565b60405180910390fd5b505050565b80600660008481526020019081526020016000209081611d0d919061380b565b507ff8e1a15aba9398e019f0b49df1a4fde98ee17ae345cb5f6b5e2c27f5033e8ce782604051611d3d9190612d7e565b60405180910390a15050565b60008111611d8c576040517f08c379a0000000000000000000000000000000000000000000000000000000008152600401611d8390613929565b60405180910390fd5b600a543414611dd0576040517f08c379a0000000000000000000000000000000000000000000000000000000008152600401611dc79061363f565b60405180910390fd5b6040518060a001604052808381526020013373ffffffffffffffffffffffffffffffffffffffff1681526020013073ffffffffffffffffffffffffffffffffffffffff16815260200182815260200160001515815250600960008481526020019081526020016000206000820151816000015560208201518160010160006101000a81548173ffffffffffffffffffffffffffffffffffffffff021916908373ffffffffffffffffffffffffffffffffffffffff16021790555060408201518160020160006101000a81548173ffffffffffffffffffffffffffffffffffffffff021916908373ffffffffffffffffffffffffffffffffffffffff1602179055506060820151816003015560808201518160040160006101000a81548160ff021916908315150217905550905050817f12660f536c114198092e438c69e73fd9e7dfe052a62864fae7ddc8b405d1b74e3330846000604051611f359493929190613949565b60405180910390a25050565b600073ffffffffffffffffffffffffffffffffffffffff168273ffffffffffffffffffffffffffffffffffffffff1603611fb257816040517f5b08ba18000000000000000000000000000000000000000000000000000000008152600401611fa99190612ce8565b60405180910390fd5b80600560008573ffffffffffffffffffffffffffffffffffffffff1673ffffffffffffffffffffffffffffffffffffffff16815260200190815260200160002060008473ffffffffffffffffffffffffffffffffffffffff1673ffffffffffffffffffffffffffffffffffffffff16815260200190815260200160002060006101000a81548160ff0219169083151502179055508173ffffffffffffffffffffffffffffffffffffffff168373ffffffffffffffffffffffffffffffffffffffff167f17307eab39ab6107e8899845ad3d59bd9653f200f220920489ca2b5937696c31836040516120a39190612b77565b60405180910390a3505050565b60008373ffffffffffffffffffffffffffffffffffffffff163b1115612261578273ffffffffffffffffffffffffffffffffffffffff1663150b7a026120f4611873565b8685856040518563ffffffff1660e01b815260040161211694939291906139e3565b6020604051808303816000875af192505050801561215257506040513d601f19601f8201168201806040525081019061214f9190613a44565b60015b6121d6573d8060008114612182576040519150601f19603f3d011682016040523d82523d6000602084013e612187565b606091505b5060008151036121ce57836040517f64a0ae920000000000000000000000000000000000000000000000000000000081526004016121c59190612ce8565b60405180910390fd5b805181602001fd5b63150b7a0260e01b7bffffffffffffffffffffffffffffffffffffffffffffffffffffffff1916817bffffffffffffffffffffffffffffffffffffffffffffffffffffffff19161461225f57836040517f64a0ae920000000000000000000000000000000000000000000000000000000081526004016122569190612ce8565b60405180910390fd5b505b50505050565b600073ffffffffffffffffffffffffffffffffffffffff168273ffffffffffffffffffffffffffffffffffffffff16036122d95760006040517f64a0ae920000000000000000000000000000000000000000000000000000000081526004016122d09190612ce8565b60405180910390fd5b60006122e78383600061188d565b9050600073ffffffffffffffffffffffffffffffffffffffff168173ffffffffffffffffffffffffffffffffffffffff160361235a57816040517f7e2732890000000000000000000000000000000000000000000000000000000081526004016123519190612d7e565b60405180910390fd5b8373ffffffffffffffffffffffffffffffffffffffff168173ffffffffffffffffffffffffffffffffffffffff16146123ce578382826040517f64283d7b0000000000000000000000000000000000000000000000000000000081526004016123c593929190613392565b60405180910390fd5b50505050565b606060405180602001604052806000815250905090565b60606123f6826117ae565b5060006124016123d4565b90506000815111612421576040518060200160405280600081525061244c565b8061242b84612784565b60405160200161243c929190613517565b6040516020818303038152906040525b915050919050565b60007f01ffc9a7000000000000000000000000000000000000000000000000000000007bffffffffffffffffffffffffffffffffffffffffffffffffffffffff1916827bffffffffffffffffffffffffffffffffffffffffffffffffffffffff1916149050919050565b60006002600083815260200190815260200160002060009054906101000a900473ffffffffffffffffffffffffffffffffffffffff169050919050565b80806125345750600073ffffffffffffffffffffffffffffffffffffffff168273ffffffffffffffffffffffffffffffffffffffff1614155b15612668576000612544846117ae565b9050600073ffffffffffffffffffffffffffffffffffffffff168373ffffffffffffffffffffffffffffffffffffffff16141580156125af57508273ffffffffffffffffffffffffffffffffffffffff168173ffffffffffffffffffffffffffffffffffffffff1614155b80156125c257506125c081846113d2565b155b1561260457826040517fa9fbf51f0000000000000000000000000000000000000000000000000000000081526004016125fb9190612ce8565b60405180910390fd5b811561266657838573ffffffffffffffffffffffffffffffffffffffff168273ffffffffffffffffffffffffffffffffffffffff167f8c5be1e5ebec7d5bd14f71427d1e84f3dd0314c0f7b2291e5b200ac8c7c3b92560405160405180910390a45b505b836004600085815260200190815260200160002060006101000a81548173ffffffffffffffffffffffffffffffffffffffff021916908373ffffffffffffffffffffffffffffffffffffffff16021790555050505050565b6126cb838383612852565b61277f57600073ffffffffffffffffffffffffffffffffffffffff168373ffffffffffffffffffffffffffffffffffffffff160361274057806040517f7e2732890000000000000000000000000000000000000000000000000000000081526004016127379190612d7e565b60405180910390fd5b81816040517f177e802f000000000000000000000000000000000000000000000000000000008152600401612776929190613a71565b60405180910390fd5b505050565b60606000600161279384612913565b01905060008167ffffffffffffffff8111156127b2576127b1612e23565b5b6040519080825280601f01601f1916602001820160405280156127e45781602001600182028036833780820191505090505b509050600082602001820190505b600115612847578080600190039150507f3031323334353637383961626364656600000000000000000000000000000000600a86061a8153600a858161283b5761283a613a9a565b5b049450600085036127f2575b819350505050919050565b60008073ffffffffffffffffffffffffffffffffffffffff168373ffffffffffffffffffffffffffffffffffffffff161415801561290a57508273ffffffffffffffffffffffffffffffffffffffff168473ffffffffffffffffffffffffffffffffffffffff1614806128cb57506128ca84846113d2565b5b8061290957508273ffffffffffffffffffffffffffffffffffffffff166128f183611836565b73ffffffffffffffffffffffffffffffffffffffff16145b5b90509392505050565b600080600090507a184f03e93ff9f4daa797ed6e38ed64bf6a1f0100000000000000008310612971577a184f03e93ff9f4daa797ed6e38ed64bf6a1f010000000000000000838161296757612966613a9a565b5b0492506040810190505b6d04ee2d6d415b85acef810000000083106129ae576d04ee2d6d415b85acef810000000083816129a4576129a3613a9a565b5b0492506020810190505b662386f26fc1000083106129dd57662386f26fc1000083816129d3576129d2613a9a565b5b0492506010810190505b6305f5e1008310612a06576305f5e10083816129fc576129fb613a9a565b5b0492506008810190505b6127108310612a2b576127108381612a2157612a20613a9a565b5b0492506004810190505b60648310612a4e5760648381612a4457612a43613a9a565b5b0492506002810190505b600a8310612a5d576001810190505b80915050919050565b6040518060a0016040528060008152602001600073ffffffffffffffffffffffffffffffffffffffff168152602001600073ffffffffffffffffffffffffffffffffffffffff168152602001600081526020016000151581525090565b6000604051905090565b600080fd5b600080fd5b60007fffffffff0000000000000000000000000000000000000000000000000000000082169050919050565b612b0c81612ad7565b8114612b1757600080fd5b50565b600081359050612b2981612b03565b92915050565b600060208284031215612b4557612b44612acd565b5b6000612b5384828501612b1a565b91505092915050565b60008115159050919050565b612b7181612b5c565b82525050565b6000602082019050612b8c6000830184612b68565b92915050565b600081519050919050565b600082825260208201905092915050565b60005b83811015612bcc578082015181840152602081019050612bb1565b60008484015250505050565b6000601f19601f8301169050919050565b6000612bf482612b92565b612bfe8185612b9d565b9350612c0e818560208601612bae565b612c1781612bd8565b840191505092915050565b60006020820190508181036000830152612c3c8184612be9565b905092915050565b6000819050919050565b612c5781612c44565b8114612c6257600080fd5b50565b600081359050612c7481612c4e565b92915050565b600060208284031215612c9057612c8f612acd565b5b6000612c9e84828501612c65565b91505092915050565b600073ffffffffffffffffffffffffffffffffffffffff82169050919050565b6000612cd282612ca7565b9050919050565b612ce281612cc7565b82525050565b6000602082019050612cfd6000830184612cd9565b92915050565b612d0c81612cc7565b8114612d1757600080fd5b50565b600081359050612d2981612d03565b92915050565b60008060408385031215612d4657612d45612acd565b5b6000612d5485828601612d1a565b9250506020612d6585828601612c65565b9150509250929050565b612d7881612c44565b82525050565b6000602082019050612d936000830184612d6f565b92915050565b600080600060608486031215612db257612db1612acd565b5b6000612dc086828701612d1a565b9350506020612dd186828701612d1a565b9250506040612de286828701612c65565b9150509250925092565b600060208284031215612e0257612e01612acd565b5b6000612e1084828501612d1a565b91505092915050565b600080fd5b600080fd5b7f4e487b7100000000000000000000000000000000000000000000000000000000600052604160045260246000fd5b612e5b82612bd8565b810181811067ffffffffffffffff82111715612e7a57612e79612e23565b5b80604052505050565b6000612e8d612ac3565b9050612e998282612e52565b919050565b600067ffffffffffffffff821115612eb957612eb8612e23565b5b612ec282612bd8565b9050602081019050919050565b82818337600083830152505050565b6000612ef1612eec84612e9e565b612e83565b905082815260208101848484011115612f0d57612f0c612e1e565b5b612f18848285612ecf565b509392505050565b600082601f830112612f3557612f34612e19565b5b8135612f45848260208601612ede565b91505092915050565b60008060408385031215612f6557612f64612acd565b5b600083013567ffffffffffffffff811115612f8357612f82612ad2565b5b612f8f85828601612f20565b9250506020612fa085828601612c65565b9150509250929050565b600081519050919050565b600082825260208201905092915050565b6000819050602082019050919050565b612fdf81612c44565b82525050565b6000612ff082612ca7565b9050919050565b61300081612fe5565b82525050565b61300f81612b5c565b82525050565b60a08201600082015161302b6000850182612fd6565b50602082015161303e6020850182612ff7565b5060408201516130516040850182612ff7565b5060608201516130646060850182612fd6565b5060808201516130776080850182613006565b50505050565b60006130898383613015565b60a08301905092915050565b6000602082019050919050565b60006130ad82612faa565b6130b78185612fb5565b93506130c283612fc6565b8060005b838110156130f35781516130da888261307d565b97506130e583613095565b9250506001810190506130c6565b5085935050505092915050565b6000602082019050818103600083015261311a81846130a2565b905092915050565b61312b81612b5c565b811461313657600080fd5b50565b60008135905061314881613122565b92915050565b6000806040838503121561316557613164612acd565b5b600061317385828601612d1a565b925050602061318485828601613139565b9150509250929050565b600067ffffffffffffffff8211156131a9576131a8612e23565b5b6131b282612bd8565b9050602081019050919050565b60006131d26131cd8461318e565b612e83565b9050828152602081018484840111156131ee576131ed612e1e565b5b6131f9848285612ecf565b509392505050565b600082601f83011261321657613215612e19565b5b81356132268482602086016131bf565b91505092915050565b6000806000806080858703121561324957613248612acd565b5b600061325787828801612d1a565b945050602061326887828801612d1a565b935050604061327987828801612c65565b925050606085013567ffffffffffffffff81111561329a57613299612ad2565b5b6132a687828801613201565b91505092959194509250565b600080604083850312156132c9576132c8612acd565b5b60006132d785828601612d1a565b92505060206132e885828601612d1a565b9150509250929050565b6000806040838503121561330957613308612acd565b5b600061331785828601612c65565b925050602061332885828601612c65565b9150509250929050565b7f4e487b7100000000000000000000000000000000000000000000000000000000600052602260045260246000fd5b6000600282049050600182168061337957607f821691505b60208210810361338c5761338b613332565b5b50919050565b60006060820190506133a76000830186612cd9565b6133b46020830185612d6f565b6133c16040830184612cd9565b949350505050565b7f4e487b7100000000000000000000000000000000000000000000000000000000600052601160045260246000fd5b600061340382612c44565b91507fffffffffffffffffffffffffffffffffffffffffffffffffffffffffffffffff8203613435576134346133c9565b5b600182019050919050565b7f4e487b7100000000000000000000000000000000000000000000000000000000600052603260045260246000fd5b7f506c65617365207375626d69742061736b696e67207072696365000000000000600082015250565b60006134a5601a83612b9d565b91506134b08261346f565b602082019050919050565b600060208201905081810360008301526134d481613498565b9050919050565b600081905092915050565b60006134f182612b92565b6134fb81856134db565b935061350b818560208601612bae565b80840191505092915050565b600061352382856134e6565b915061352f82846134e6565b91508190509392505050565b7f4f6e6c79206974656d206f776e65722063616e20706572666f726d207468697360008201527f2073616c65000000000000000000000000000000000000000000000000000000602082015250565b6000613597602583612b9d565b91506135a28261353b565b604082019050919050565b600060208201905081810360008301526135c68161358a565b9050919050565b7f5072696365206d75737420626520657175616c20746f206c697374696e67207060008201527f7269636500000000000000000000000000000000000000000000000000000000602082015250565b6000613629602483612b9d565b9150613634826135cd565b604082019050919050565b600060208201905081810360008301526136588161361c565b9050919050565b60008190508160005260206000209050919050565b60006020601f8301049050919050565b600082821b905092915050565b6000600883026136c17fffffffffffffffffffffffffffffffffffffffffffffffffffffffffffffffff82613684565b6136cb8683613684565b95508019841693508086168417925050509392505050565b6000819050919050565b60006137086137036136fe84612c44565b6136e3565b612c44565b9050919050565b6000819050919050565b613722836136ed565b61373661372e8261370f565b848454613691565b825550505050565b600090565b61374b61373e565b613756818484613719565b505050565b5b8181101561377a5761376f600082613743565b60018101905061375c565b5050565b601f8211156137bf576137908161365f565b61379984613674565b810160208510156137a8578190505b6137bc6137b485613674565b83018261375b565b50505b505050565b600082821c905092915050565b60006137e2600019846008026137c4565b1980831691505092915050565b60006137fb83836137d1565b9150826002028217905092915050565b61381482612b92565b67ffffffffffffffff81111561382d5761382c612e23565b5b6138378254613361565b61384282828561377e565b600060209050601f8311600181146138755760008415613863578287015190505b61386d85826137ef565b8655506138d5565b601f1984166138838661365f565b60005b828110156138ab57848901518255600182019150602085019450602081019050613886565b868310156138c857848901516138c4601f8916826137d1565b8355505b6001600288020188555050505b505050505050565b7f5072696365206d7573742062652067726561746572207468616e203000000000600082015250565b6000613913601c83612b9d565b915061391e826138dd565b602082019050919050565b6000602082019050818103600083015261394281613906565b9050919050565b600060808201905061395e6000830187612cd9565b61396b6020830186612cd9565b6139786040830185612d6f565b6139856060830184612b68565b95945050505050565b600081519050919050565b600082825260208201905092915050565b60006139b58261398e565b6139bf8185613999565b93506139cf818560208601612bae565b6139d881612bd8565b840191505092915050565b60006080820190506139f86000830187612cd9565b613a056020830186612cd9565b613a126040830185612d6f565b8181036060830152613a2481846139aa565b905095945050505050565b600081519050613a3e81612b03565b92915050565b600060208284031215613a5a57613a59612acd565b5b6000613a6884828501613a2f565b91505092915050565b6000604082019050613a866000830185612cd9565b613a936020830184612d6f565b9392505050565b7f4e487b7100000000000000000000000000000000000000000000000000000000600052601260045260246000fdfea2646970667358221220569c2e27aa62cd59d45efea30b024f4015e63e184c53603e66e3443a97c9be2464736f6c63430008180033",
  "linkReferences": {},
  "deployedLinkReferences": {}
}